:020000040800F2
:100000003804002001010008390400080504000834
:100010003504000875010008ED0B00080000000021
:10002000000000000000000000000000C5050008FE
:10003000E502000800000000AD040008D906000831
:100040001B0100081B0100081B0100081B01000820
:100050001B0100081B0100081B0100081B01000810
:100060001B0100081B0100081B0100081B01000800
:100070001B0100081B0100081B0100081B010008F0
:100080001B0100081B0100081B0100081B010008E0
:100090001B0100081B0100081B0100081B010008D0
:1000A0001B0100081B0100081B0100081B010008C0
:1000B0003D07000861070008000000001B01000860
:1000C0001B01000800000000000000001B010008E8
:1000D000000000000D0900081B01000800000000DE
:1000E0001B0100081B0100081B010008DFF80CD0F1
:1000F00000F02EF800480047850E00083804002064
:100100000648804706480047FEE7FEE7FEE7FEE7B1
:10011000FEE7FEE7FEE7FEE7FEE7FEE7DD06000896
:10012000ED00000830B50B460146002020220124D6
:1001300009E021FA02F59D4205D303FA02F5491BB5
:1001400004FA02F52844151EA2F10102F1DC30BDCB
:10015000064C074D06E0E06840F0010394E8070014
:1001600098471034AC42F6D3FFF7C4FF2C0F0008B9
:100170004C0F000800BFFEE710B5002422480068BD
:1001800020F47000204908600846006840F44010E0
:10019000086000201D490860142000F015FE0120B1
:1001A0001B49C1F894011E2000F034FE1648006877
:1001B00020F47000144908600846006840F400000C
:1001C000086004E0601CC4B2012000F023FE0F4868
:1001D0008038006808B9642CF4DB642C01DB012052
:1001E00010BD002404E0601CC4B2012000F012FE27
:1001F00006488038006808B1642CF4DB642C01DB0D
:100200000120EDE70020EBE70008014094012142C6
:100210000000214208B50121042000F059F9142002
:100220008DF803002020ADF8000003208DF80200B7
:100230006946024800F057F808BD00000008014078
:100240007CB505460E46FFF797FF10BB002405E07E
:1002500000F03AF80DF80400601CC4B2052CF7DB7E
:100260009DF800009DF8011008449DF80210084414
:100270009DF8031008449DF80410884207D19DF8AA
:10028000000030709DF80200287000207CBD012025
:10029000FCE70120FAE7000010B500BF094800683C
:1002A0000028FBD100BF074800680028FBD02320AE
:1002B00000F0B0FD0348006808B1012010BD002027
:1002C000FCE700001401214270B5802406E0FFF72E
:1002D000E3FF08B1254300E0A5436410002CF6D1EC
:1002E000284670BD70472DE9F041024600250026E2
:1002F000002000230024002791F803C00CF00F0514
:1003000091F803C00CF0100CBCF1000F03D091F871
:1003100002C04CEA050591F800C0BCF1000F31D0D5
:10032000146800202BE04FF0010C0CFA00F3B1F838
:1003300000C00CEA03069E4220D183004FF00F0C50
:100340000CFA03F7BC4305FA03FC4CEA040491F8E9
:1003500003C0BCF1280F06D14FF0010C0CFA00FCD1
:10036000C2F814C00AE091F803C0BCF1480F05D1EF
:100370004FF0010C0CFA00FCC2F810C0401C082819
:10038000D1D31460B1F800C0BCF1FF0F34DD546864
:1003900000202EE000F1080C4FF0010808FA0CF3E1
:1003A000B1F800C00CEA03069E4221D183004FF051
:1003B0000F0C0CFA03F7BC4305FA03FC4CEA0404E7
:1003C00091F803C0BCF1280F05D100F1080C08FA20
:1003D0000CF8C2F8148091F803C0BCF1480F07D1A3
:1003E00000F1080C4FF0010808FA0CF8C2F8108070
:1003F000401C0828CED35460BDE8F08141617047AD
:100400000161704700BFFEE708B50121102000F030
:100410005FF810208DF803004002ADF800000320C3
:100420008DF8020069460248FFF75DFF08BD000035
:100430000010014000BFFEE77047000070B50021CA
:1004400000230F22C47804B3154C246804F4E0643C
:10045000C4F5E064210AC1F10403CA40447804FAF7
:1004600003F184781440214309010E4C0678A1550C
:10047000047804F01F050124AC4005786D11AD002F
:1004800005F1E025C5F8004109E0047804F01F05F6
:100490000124AC40044D0678761145F8264070BD25
:1004A0000CED00E000E400E080E100E070470000B7
:1004B00029B1064AD2690243044BDA6104E0034AD7
:1004C000D2698243014BDA6170470000001002409C
:1004D00029B1064A92690243044B9A6104E0034A37
:1004E00092698243014B9A617047000000100240FC
:1004F00030B500210022002400232D4D6D6805F049
:100500000C0121B1042905D0082923D105E0294D8A
:10051000056022E0274D05601FE0254D6D6805F45C
:100520007012234D6D6805F48034022505EB92426C
:100530001CB9214D554305600BE01D4D6D6805F458
:1005400000351DB11C4D5543056002E0194D554362
:10055000056002E0174D056000BF00BF144D6D68D7
:1005600005F0F0010909154D6B5C0568DD4045603B
:100570000F4D6D6805F4E061090A104D6B5C45682C
:10058000DD4085600A4D6D6805F46051C90A0B4D68
:100590006B5C4568DD40C560054D6D6805F4404104
:1005A000890B074D6B5CC568B5FBF3F5056130BD84
:1005B0000010024000127A0000093D0014000020E3
:1005C00024000020704710B500F002F810BD0000B4
:1005D0000CB50020019000903348006840F4803052
:1005E0003149086000BF3048006800F400300090D6
:1005F0000198401C0190009818B90198B0F5A06FBF
:10060000F1D12948006800F4003010B101200090B9
:1006100001E0002000900098012843D123480068A1
:1006200040F01000214908600846006820F00700EB
:1006300008600846006840F0020008601A484068F8
:10064000194948600846406848600846406840F4D8
:10065000806048600846406820F47C104860084686
:10066000406840F4E81048600846006840F0807038
:10067000086000BF0C48006800F000700028F9D046
:100680000948406820F00300074948600846406870
:1006900040F00200486000BF0348406800F00C00D2
:1006A0000828F9D10CBD00000010024000200240D3
:1006B000042808D14FF0E021096941F004014FF00E
:1006C000E022116107E04FF0E021096921F0040107
:1006D0004FF0E022116170477047000010B51348D9
:1006E000006840F001001149086008464068104960
:1006F00008400E494860084600680E4908400B490A
:1007000008600846006820F48020086008464068B9
:1007100020F4FE0048604FF41F008860FFF753FF8D
:100720004FF000600449086010BD00000010024056
:100730000000FFF8FFFFF6FE08ED00E010B5012114
:10074000880700F076F840B14FF400510348FFF7F6
:1007500055FE0121880700F05DF810BD0010014032
:1007600010B50121114800F064F8F0B1104800788C
:1007700010B1012814D10AE04FF400510D48FFF7E1
:100780003DFE0B480078401C0949087008E04FF412
:1007900000510848FFF734FE00200549087000BFEB
:1007A00000BF0121014800F035F810BD00040040F1
:1007B00028000020001001407FB505460C460121AD
:1007C0000220FFF775FEADF80850ADF80440002098
:1007D000ADF80A00ADF8060001A90D4800F044F894
:1007E000012211460A4800F035F81D208DF800005E
:1007F00002208DF801008DF8020001208DF8030021
:100800006846FFF71BFE0121014800F006F87FBD96
:1008100000040040CA430282704721B1028842F0BE
:100820000102028004E002884FF6FE731A40028043
:10083000704730B50246002000230024158A05EADF
:100840000103958905EA010413B10CB1012000E010
:10085000002030BD1AB183890B43838102E0838974
:100860008B43838170470000002202881D4B984211
:100870000ED01D4B98420BD0B0F1804F08D01B4BCF
:10088000984205D01A4B984202D01A4B984204D194
:100890004FF68F731A404B881A43174B984207D074
:1008A000164B984204D04FF6FF431A40CB881A43A8
:1008B00002808B8883850B8803850A4B98420BD076
:1008C000094B984208D00E4B984205D00D4B9842E8
:1008D00002D00D4B984201D10B7A0386012383820B
:1008E00070470000002C014000340140000400402B
:1008F00000080040000C00400010004000140040C0
:1009000000400140004401400048014010B540F261
:100910002551064800F099F818B1044800F050F944
:1009200004462146014800F05DF910BD0038014041
:1009300070B504460D46C5F30800A08000BF8021B5
:10094000204600F075F80028F9D070BD70B5054656
:100950000C4604E014F8011B2846FFF7E9FF207855
:100960000028F7D100BF4021284600F061F8002898
:10097000F9D070BD00B587B0012144F20400FFF743
:10098000A7FD4FF40070ADF8180018208DF81B007B
:1009900003208DF81A0006A91D48FFF7A4FC4FF4A8
:1009A0008060ADF8180004208DF81B0006A91848D7
:1009B000FFF799FC4FF4165002900020ADF8140098
:1009C0000C20ADF812000020ADF81000ADF80E00BC
:1009D000ADF80C0025208DF8040001208DF80700EB
:1009E00002208DF805008DF80600012240F2255105
:1009F000084800F054F802A9064800F075F80121F3
:100A0000044800F009F801A8FFF718FD07B000BD81
:100A1000000801400038014021B1828942F40052AF
:100A2000828104E082894DF6FF731A40828170470B
:100A300002460020B1F5007F00D100BF13880B40B3
:100A40000BB1012000E00020704770B50246002481
:100A500000230025002040F66A16B14200D100BFF5
:100A6000C1F3421501F01F03012606FA03F3012D1D
:100A700002D19689334006E0022D02D1168A334016
:100A800001E0968A33400C12012606FA04F4168817
:100A9000344013B10CB1012000E0002070BDF0B56E
:100AA0000346002400260025002040F66A17B942BC
:100AB00000D100BF1846C1F3421401F01F06012700
:100AC00007FA06F5012C01D10C3004E0022C01D10B
:100AD000103000E014301AB107682F43076002E0BD
:100AE0000768AF430760F0BD2DE9F04786B00546C3
:100AF0000E460024A24600BFA1460027B08900B1DF
:100B000000BF2F462C8A4CF6FF700440F088044347
:100B10002C82AC894EF6F3100440B088318908432A
:100B2000718908430443AC81AC8A4FF6FF4004400E
:100B3000B0890443AC8201A8FFF7DAFC1F48874262
:100B400002D1DDF810A001E0DDF80CA0A88900F4C6
:100B5000004040B10AEBCA0000EB0A1031684900BE
:100B6000B0FBF1F807E00AEBCA0000EB0A103168AD
:100B70008900B0FBF1F86420B8FBF0F00401200913
:100B8000642101FB1089A88900F4004040B13220A3
:100B900000EBC900B0FBF1F000F00700044308E0EF
:100BA000322000EB09106421B0FBF1F000F00F00DF
:100BB00004432C8106B0BDE8F087000000380140F6
:100BC00010B5044600BF20212046FFF731FF002862
:100BD000F9D0204600F001F810BD01468888C0F326
:100BE00008007047C1F308028280704700BFFEE72B
:100BF0000FB4054B10B503A9044A029800F018F889
:100C000010BC5DF814FB0000610E000830000020ED
:100C100002E008C8121F08C1002AFAD170477047C5
:100C2000002001E001C1121F002AFBD17047000023
:100C30002DE9FF4F89B09B460446002506E0252894
:100C40000BD05A460B999047641C6D1C20780028E5
:100C5000F5D10DB02846BDE8F08F0027B846012237
:100C6000474900E0074314F8013F203B02FA03F034
:100C70000842F7D120782E2819D114F8010F47F037
:100C800004072A280ED06FF02F022078A0F130013F
:100C900009290CD808EB880102EB410100EB01089F
:100CA000641CF2E70A98641C50F8048B0A902078C0
:100CB0000028CED0642808D0692806D075281ED018
:100CC0005A460B9990476D1C58E00A994FF00A0953
:100CD00001C90A91002802DA40422D2102E03905BB
:100CE00004D52B218DF82010012103E0F90704D051
:100CF0002021F7E78A4608AE0DE00021FAE70A99BD
:100D00004FF00A0901C90A91F7E74946FFF70AFAC5
:100D1000303106F8011D0028F7D1ADEB060000F1D7
:100D20002009780701D44FF00108C84502DDA8EB7F
:100D3000090000E000208046002706E008A85A4687
:100D4000C05D0B9990476D1C7F1C5745F6DB04E096
:100D500030205A460B9990476D1CB8F10001A8F15C
:100D60000108F5DC05E016F8010B5A460B9990478F
:100D70006D1CB9F10001A9F10109F4DC641C65E7FF
:100D80000928010010B56FF00400FFF791FC0A4834
:100D900000680A49B0FBF1F009490870084600787C
:100DA00000EB4001C1EBC0104FF6FF7101EAC0003B
:100DB0000449088010BD00000000002000127A00E5
:100DC0002A0000202C0000200146114A12884A43C4
:100DD0004FF0E0235A6100229A611A46126942F0EC
:100DE00001021A6100BF4FF0E022106900F0010219
:100DF0001AB100F48032002AF5D04FF0E0221269D7
:100E000022F001024FF0E0231A6100229A6170473C
:100E10002C0000200146114A12784A434FF0E0238B
:100E20005A6100229A611A46126942F001021A615F
:100E300000BF4FF0E022106900F001021AB100F487
:100E40008032002AF5D04FF0E022126922F0010230
:100E50004FF0E0231A6100229A6170472A000020B7
:100E600070B504460D46E1B20548FFF7BBFE00BF72
:100E700080210348FFF7DCFD0028F9D0204670BD33
:100E8000003801401CB5FFF7BFFA41F61F4142F29E
:100E90000F70FFF791FCFFF76DFDFFF773FFFFF792
:100EA000B9F912A11448FFF751FD1EE0694601A8E7
:100EB000FFF7C6F904468CB910A0FFF799FE9DF81C
:100EC000041011A0FFF794FE9DF8001011A0FFF789
:100ED0008FFE4FF47A70FFF777FF02E010A0FFF764
:100EE00087FE4FF47A70FFF76FFFDFE7BFAAC6F403
:100EF000B4AEBFDA0A00000000380140BFAACABC85
:100F0000B6C1C8EB0A000000CEC2B6C83A25640AD2
:100F100000000000CAAAB6C83A25640A0000000012
:100F2000B6C1C8A1CAA7B0DC0A0000004C0F000877
:100F30000000002034000000100C0008800F0008A2
:100F40003400002004040000200C000800A24A0421
:100F50000000000000000000010203040607080969
:100F6000000000000102030401020304060708094F
:100F7000020406080000000000000000000000005D
:04000005080000ED02
:00000001FF
